:100000000C9434000C9451000C9451000C94510049
:100010000C9451000C9451000C9451000C9451001C
:100020000C9451000C9451000C9451000C9451000C
:100030000C9451000C9451000C9489000C945100C4
:100040000C9451000C9451000C94A3000C9451009A
:100050000C9451000C9451000C9451000C945100DC
:100060000C9451000C94510011241FBECFEFD8E026
:10007000DEBFCDBF13E0A0E0B1E0E4EDFBE002C0E5
:1000800005900D92AE36B107D9F713E0AEE6B3E0B6
:1000900001C01D92AF3AB107E1F70E94D0000C9465
:1000A000E8050C9400007894E1ECF0E08081806831
:1000B000808384B5826084BD85B5836085BD89EF0A
:1000C00087BDEEE6F0E08081826080830895FC01C8
:1000D0009B018081882389F4809100019091010126
:1000E000860F971F6CE370E00E948B0490936F0360
:1000F00080936E0381E08083299A309749F0809144
:100100006E0390916F032817390711F41082299814
:1001100008951F920F920FB60F9211248F939F9301
:1001200081E08093A80380917203909173030196FC
:1001300090937303809372039F918F910F900FBEE2
:100140000F901F9018951F920F920FB60F921124C7
:100150002F933F934F935F936F937F938F939F93CF
:10016000AF93BF93EF93FF9381E08093A7038093B6
:1001700074038FE893E060E773E00E946202FF91EE
:10018000EF91BF91AF919F918F917F916F915F910F
:100190004F913F912F910F900FBE0F901F90189588
:1001A0002F923F924F925F926F927F928F929F9287
:1001B000AF92BF92CF92DF92EF92FF920F931F9375
:1001C000DF93CF93CDB7DEB7E9970FB6F894DEBFD4
:1001D0000FBECDBF1B821A821D821C82198286E04F
:1001E000E82EF12CEC0EFD1EC70168E070E00E94C5
:1001F000D6038E010A5E1F4FC80168E070E00E94BE
:10020000D603CE01869668E070E00E94D6030E9475
:1002100053000E9423030E941903AA24BB24CC2468
:10022000DD2419AE18AE882499241FAA1EAA222400
:10023000302E612E2E010894411C511C7E2CEF2C77
:100240008091A703882309F473C0222021F40E941F
:100250007004222423940E94BF02E0917003F09165
:100260007103E257FC4FE081ED3609F442C0EE36EF
:1002700030F4E43689F0EC3609F054C01FC0EF3694
:1002800021F0E43709F04EC00AC00E942D04C201DB
:10029000B6010E94670048C00E94550445C00E94F4
:1002A00020046A817B81872D9E2D0E94BB0360E024
:1002B00070E04AE050E00E945B032EC000E010E0D6
:1002C00085E090E0672D7E2DAE014E5F5F4F0E946E
:1002D000C5020F5F1F4F0730110591F70E940D04F3
:1002E0006A817B81872D9E2D0E94BB030E9495030E
:1002F00013C083E090E0632D762DAE014C5F5F4F1D
:100300000E94C5020E94FA036C817D81832D962D87
:100310000E94BB030E94A8030E94380382E091E080
:100320000E949B020E9470040E94B9021092A703CF
:100330008091A803882309F483CFF8942091720355
:1003400030917303022FF32EC90168EE73E00E940F
:100350008B04892B09F05DC085B190E1892785B9AF
:100360002981222351F02C9B02C02A9A01C02A988D
:1003700085B194E0892785B901C02A980894A11C09
:10038000B11C1FB77894C5016CE370E00E948B0428
:10039000892B89F40894C11CD11CC6016CE370E060
:1003A0000E948B04892B29F4AA24BB24CC24DD24AD
:1003B00002C0AA24BB2481E9881681E0980614F4BF
:1003C000222321F0C201B6010E94670080917403CC
:1003D0008823F1F085E091E00E949B02C6010E9413
:1003E00038038EE091E00E949B028EA99FA90E9493
:1003F000380388E191E00E949B02C4010E94380307
:1004000086E291E00E949B0288AD99AD0E9438037C
:100410001FBF802F9F2D64E670E00E948B04892B04
:1004200001F589818823E9F4CE01869668E070E0C1
:100430000E94BB0360E070E04AE050E00E945B0372
:100440009FAB8EAB832D962D68E070E00E94BB03BE
:100450004C01872D9E2D68E070E00E94BB0399AF90
:1004600088AF802F9F2D6AE070E00E948B04892B5B
:1004700079F41FB778948981882349F483E090E068
:10048000632D762DAE014C5F5F4F0E94C5021FBFEA
:100490001092A80378944CCFAC0120E030E00CC05F
:1004A0008091C00085FFFCCFFA01E20FF31F80812D
:1004B0008093C6002F5F3F4F261737078CF3822F9C
:1004C0008F5F0895DB018D919C911197479791F46F
:1004D00011961C921E92ED91FC9111978091C6008D
:1004E000E157FC4F80838D919C9111970196119655
:1004F0009C938E93ED91FC9111978091C600E157EA
:10050000FC4F80838D919C911197019611969C933D
:100510008E930895982F8091C00085FFFCCF909313
:10052000C6008091750390917603019690937603AF
:10053000809375030895FC01109276031092750361
:1005400010C08091C00085FFFCCF31969093C6000B
:100550008091750390917603019690937603809332
:1005600075039081992369F78091750390917603C3
:100570000895E1ECF0E08081806180830895E1ECF2
:10058000F0E080818F7E80830895282FDA018D919D
:100590009C91119708971CF011961C921E928091C5
:1005A0007C00822B80937C0080917A008064809311
:1005B0007A0080917A0084FFFCCF80917800ED91E1
:1005C000FC911197EE0FFF1FE60FF71F808311823A
:1005D000ED91FC911197EE0FFF1FE60FF71F809131
:1005E0007900382F20E080819181822B932B918399
:1005F00080838D919C91119701968D939C9380910E
:100600007A00806180937A000895FB018083918352
:10061000ECE7F0E09081982B9083EAE7F0E08081AE
:100620008061808380818860808383B783BF889561
:1006300008958FE380937E0087E980937A0081E0BC
:1006400080937C00089517B88FEF84B92A982C986E
:10065000E1ECF0E0808188618083E2ECF0E0808171
:10066000866080831092C50087E68093C400089559
:10067000EF92FF920F931F938C0183E090E00E9412
:10068000B204F82EE92EC8016F2D7E2D4AE050E00D
:100690000E94B7058F2D9E2D0E949B0284E391E05E
:1006A0000E949B028F2D9E2D0E945F051F910F912E
:1006B000FF90EF900895EF92FF920F931F93CF93C7
:1006C000DF937C018A01009719F420E030E025C017
:1006D000E7E3F1E0EB01C41BD50B1AC09B012E1917
:1006E0003F0982819381681B790B029FC001039FA0
:1006F000900D129F900D11240E948B049E01260FD5
:10070000371F3296C00FD11F81E0E934F80729F076
:1007100060817181E616F7060CF3C901DF91CF9174
:100720001F910F91FF90EF900895AC01E9E4F1E083
:1007300020E030E006C02F5F3F4F32962530310574
:1007400029F08081918148175907ACF3C9010895B8
:10075000AC01E3E5F1E020E030E006C02F5F3F4F61
:1007600032962430310529F080819181481759074C
:10077000ACF3C90108956115710519F420E030E06A
:1007800013C0FC0140E050E020E030E006C0819161
:100790009191480F591F2F5F3F4F26173707BCF322
:1007A000CA010E948B049B01C9010895FC0180E0ED
:1007B00090E003C011921192019686179707D4F327
:1007C00008950F931F938091AC019091AD010E9409
:1007D0009B028091E7019091E8010E949B020BE54A
:1007E00011E0C8010E949B02C8010E949B021F9158
:1007F0000F9108950E94E103809165039091660333
:100800000E949B028BE591E00E949B0280914F0227
:10081000909150020E949B0208950E94E1038091F2
:100820003A0390913B030E949B028BE591E00E946A
:100830009B0280914202909143020E949B02089584
:100840000E94E10380913802909139020E949B023C
:100850008BE591E00E949B0208950F931F930E94E5
:10086000E1038091DC029091DD020E949B020BE586
:1008700011E0C8010E949B028091FE029091FF024C
:100880000E949B02C8010E949B021F910F91089534
:100890000E94E1038091BE029091BF020E949B02E0
:1008A0008BE591E00E949B0208950F931F930E9495
:1008B000E10380918D0290918E020E949B020BE5D4
:1008C00011E0C8010E949B028091A6029091A702AC
:1008D0000E949B02C8010E949B021F910F910895E4
:1008E0000F931F930E94E1038091130290911402D1
:1008F0000E949B020BE511E0C8010E949B028091BF
:100900002802909129020E949B02C8010E949B022A
:100910001F910F91089597FB092E07260AD077FDA6
:1009200004D00CD006D000201AF4709561957F4F4A
:100930000895F6F7909581959F4F0895AA1BBB1BCC
:1009400051E107C0AA1FBB1FA617B70710F0A61BCF
:10095000B70B881F991F5A95A9F780959095BC01F0
:10096000CD010895CF93DF93BC018230910510F43F
:1009700062E070E0A091AD03B091AE03ED01E0E064
:10098000F0E040E050E021C0888199818617970708
:1009900069F48A819B81309719F09383828304C024
:1009A0009093AE038093AD03FE0134C068177907BE
:1009B00038F44115510519F08417950708F4AC0176
:1009C000FE018A819B819C01E9012097E9F641158E
:1009D0005105A9F1CA01861B970B049708F4BA01C7
:1009E000E0E0F0E02AC08D919C9111978417950763
:1009F000F9F46417750781F412968D919C91139701
:100A0000309719F09383828304C09093AE03809350
:100A1000AD03FD0132964FC0CA01861B970BFD0145
:100A2000E80FF91F6193719302978D939C9343C0D4
:100A3000FD01828193819C01D9011097A1F68091DB
:100A4000AB039091AC03892B41F4809169039091A1
:100A50006A039093AC038093AB0340916B03509176
:100A60006C034115510541F44DB75EB780916703A2
:100A700090916803481B590B2091AB033091AC0354
:100A800024173507B0F4CA01821B930B861797070A
:100A900080F0AB014E5F5F4F8417950750F0420F17
:100AA000531F5093AC034093AB03F90161937193CF
:100AB00002C0E0E0F0E0CF01DF91CF910895CF9345
:100AC000DF93009709F450C0EC0122971B821A8231
:100AD000A091AD03B091AE03109709F140E050E052
:100AE000AC17BD0708F1BB83AA83FE0121913191A8
:100AF000E20FF31FAE17BF0779F48D919C91119708
:100B0000280F391F2E5F3F4F3983288312968D910E
:100B10009C9113979B838A834115510571F4D0935F
:100B2000AE03C093AD0320C012968D919C91139794
:100B3000AD01009711F0DC01D3CFFA01D383C2835A
:100B400021913191E20FF31FCE17DF0769F48881FD
:100B50009981280F391F2E5F3F4FFA01318320837F
:100B60008A819B8193838283DF91CF910895FB01DA
:100B70009F01E8944230C4F04532B4F44A3029F47D
:100B800097FB1EF4909581959F4F642F77270E94C5
:100B90009E04805D8A330CF0895D8193CB010097C0
:100BA000A1F716F45DE251931082C9010C94D805A7
:100BB000DC01FC01672F71917723E1F7329704C0C4
:100BC0007C916D9370836291AE17BF07C8F308954F
:040BD000F894FFCFC7
:100BD40005000D0A000D0A4D696E733A20000D0AD6
:100BE40041564720543A20000D0A415647204D20D3
:100BF4004144433A20000D0A415647204C204144C9
:100C0400433A20000A0D006203120323022602B1B4
:100C1400014C01F000AB008000DE030203A802587F
:100C240002F401E80358029001C8000A0D0053655C
:100C34006E736F72205265616465722056312E3076
:100C4400005E012A2A2A2A2A2A2A2A2A2A2A2A2A1F
:100C54002A2A2A2A2A53656E736F722052656164A8
:100C640065722056312E302A2A2A2A2A2A2A2A2A2A
:100C74002A2A2A2A2A2A2A2A2A0A0D0073012A2A17
:100C84002A2A2A2A2A2A2A2A2A2A2A2A2A2A2A2AC0
:100C94005420452053746F7265792A2A2A2A2A2AF5
:100CA4002A2A2A2A2A2A2A2A2A2A2A2A2A2A2A2AA0
:100CB4002A2A2A2A0A0D00AE013E0900E901506CD5
:100CC400656173652063686F6F73652066726F6D0D
:100CD40020646174612C206F72206F766572726972
:100CE400646500EE01627920656E746572696E67F1
:100CF4002064206F72206F00150254656D70657258
:100D040061747572653A20002A024C696768743A06
:100D140020003A024D6F6973747572653A2000447D
:100D24000250756D702061637469766500510250DC
:100D34006C656173652073656C6563742C207465E0
:100D44006D70657261747572652C206C6967687466
:100D5400206F72206D6F697374757265005F026233
:100D64007920656E746572696E672C20742C206C12
:100D7400206F72206D008F025072657373206F2094
:100D8400746F2073746172742070756D7000A802A2
:100D940050756D702077696C6C2072756E20666F6B
:100DA400722035206D696E7574657300C0025072CF
:100DB40065737320616E79206B657920746F20727E
:100DC400657475726E20746F206D656E7500DE0239
:100DD40030203D206461726B2C2031203D207477DB
:100DE400696C696768742C2032203D20636C6F75D0
:100DF40064792C2033203D206272696768742C204A
:100E040034203D2073756E6E7900000330203D2040
:100E140076657279206472792C2031203D206472C9
:100E2400792C2032203D2064616D702C2033203DCC
:0E0E340020776574003C032000AF030000002F
:00000001FF
